:020000040000FA
:10000000600400206D020000710200007302000015
:100010007502000077020000790200000000000075
:100020000000000000000000000000007B02000053
:100030007D020000000000007F020000810200003D
:10004000830200008302000083020000830200009C
:10005000830200008302000083020000830200008C
:10006000830200008302000083020000830200007C
:10007000830200008302000083020000830200006C
:10008000830200008302000083020000830200005C
:10009000830200008302000083020000830200004C
:1000A000830200008302000083020000830200003C
:1000B000830200008302000083020000830200002C
:1000C000830200008302000083020000830200001C
:1000D000830200008302000083020000830200000C
:1000E00083020000830200008302000083020000FC
:1000F00083020000830200008302000083020000EC
:1001000083020000830200008302000083020000DB
:1001100083020000830200008302000083020000CB
:1001200083020000830200008302000083020000BB
:1001300083020000830200008302000083020000AB
:1001400000000000000000000000000000000000AF
:10015000830200008302000083020000830200008B
:10016000000000000000000000000000000000008F
:10017000000000000000000000000000000000007F
:10018000000000000000000000000000000000006F
:10019000000000000000000000000000000000005F
:1001A000000000000000000000000000000000004F
:1001B000830200008302000083020000830200002B
:1001C000830200008302000083020000830200001B
:1001D000830200008302000083020000830200000B
:1001E00083020000830200008302000083020000FB
:1001F00083020000830200008302000083020000EB
:10020000830200008302000083020000000000005F
:1002100083020000830200008302000083020000CA
:1002200083020000830200008302000083020000BA
:1002300083020000830200008302000083020000AA
:10024000830200008302000083020000830200009A
:10025000830200008302000083020000830200008A
:1002600083020000830200008302000000F00AB84D
:10027000FEE7FEE7FEE7FEE7FEE7FEE7FEE7FEE756
:10028000FEE7FEE700F002F800F02CF80AA090E884
:10029000000C82448344AAF10107DA4501D100F041
:1002A00021F8AFF2090EBAE80F0013F0010F18BFE2
:1002B000FB1A43F001031847880500009805000069
:1002C0000023002400250026103A28BF78C1FBD85F
:1002D000520728BF30C148BF0B6070471FB51FBD14
:1002E00010B510BD00F029F81146FFF7F7FF00F038
:1002F000E5F900F047F803B4FFF7F2FF03BC00F0A4
:100300004FF8000072B6704762B67047EFF3108086
:1003100072B6704780F31088704730BF704702484C
:100320000249014A024B704760000020600400202F
:1003300060000020704770477047754600F02CF849
:10034000AE4605006946534620F00700854618B0C2
:1003500020B5FFF7E4FFBDE820404FF000064FF066
:1003600000074FF000084FF0000BAC46ACE8C009A6
:10037000ACE8C009ACE8C009ACE8C00921F007014D
:100380008D46704710B50446AFF300802046BDE8A7
:100390001040FFF7B0BF0000004870470000002089
:1003A00001491820ABBEFEE726000200704700009E
:1003B0004EF20810C4F20F0000688007002814D421
:1003C000FFE74EF20811C4F20F01086840F0020086
:1003D0000860FFE74EF20810C4F20F0000688007C3
:1003E000002801D4FFE7F5E7FFE745F22851C4F202
:1003F0000001086820F03C00086045F22041C4F28A
:100400000001086820F03C00086045F22C51C4F25D
:10041000000108686FF31720086045F20041C4F23C
:100420000001086840F03C00086045F21C51C4F22D
:100430000001086840F03C00086070474EF2081167
:10044000C4F20F01086840F020000860FFE74EF298
:100450000810C4F20F0000688006002801D4FFE7EE
:10046000F5E745F22851C4F20201086820F00E00B9
:10047000086045F22C51C4F2020108684FF6F07290
:100480009043086045F20041C4F20201086840F060
:100490000E00086045F22041C4F20201086820F015
:1004A0000E00086045F21C51C4F20201086840F0D9
:1004B0000E00086045F23801C4F202010020086015
:1004C0007047000081B0ADF80200ADF80010BDF833
:1004D0000200013848F25801C4F202010860BDF878
:1004E0000000013848F25C01C4F20201086001B06A
:1004F000704700004EF20810C4F20F000068800739
:10050000002814D4FFE74EF20811C4F20F01086866
:1005100040F002000860FFE74EF20810C4F20F003E
:1005200000688007002801D4FFE7F5E7FFE745F200
:100530002041C4F20001086840F0C000086045F2A4
:100540002C51C4F20001086820F07F400860086860
:1005500040F08840086045F21C51C4F20001086870
:1005600040F0C00008604EF24061C4F20F0108681C
:1005700040F0010008604EF26001C4F20F0108680B
:1005800020F4F010086048F24001C4F2020100209B
:10059000086048F26003C4F202031A6842F0C8021D
:1005A0001A6048F26403C4F202031A6840F6084C69
:1005B00042EA0C021A6048F25003C4F2020343F606
:1005C0007F621A6048F25802C4F20202106048F2D8
:1005D0005C02C4F202021060086840F0010008608A
:1005E00048F20801C4F20201086820F00300086024
:1005F00070470000FFE74DF21800C4F200000068E9
:10060000C006002801D5FFE7F5E74DF20000C4F26F
:100610000000006840B270474EF20411C4F20F01AE
:10062000086840F0020008604EF20811C4F20F01A1
:10063000086840F0020008604DF23001C4F2000189
:10064000002008604DF22402C4F200021120106064
:100650004DF22802C4F20002172010604DF22C0265
:10066000C4F200027020106045F22042C4F2000281
:10067000106840F00300106045F22C52C4F20002F2
:10068000106820F0EE001368184340F0110010606D
:1006900045F21C52C4F20002106840F003001060E2
:1006A00045F22852C4F20002106820F003001060E6
:1006B000086840F2013210430860704780B584B08A
:1006C000002001900390FFF7A7FFFFF7B7FEFFF7A9
:1006D0006FFEFFF70FFF4FF461510846FFF7F2FE80
:1006E000019845F23801C4F20201086053208DF8E8
:1006F0000B00FFE7FFF77EFF8DF80B009DF90B0065
:10070000462815D1FFE745F23801C4F2020108205E
:10071000086045F2F001C4F200012820086048F2A8
:100720000801C4F20201086840F00300086085E097
:100730009DF90B00422815D1FFE745F23801C4F2BC
:1007400002010420086045F2F001C4F20001142007
:10075000086048F20801C4F20201086840F0030092
:1007600008606AE09DF90B004C2819D1FFE745F2BB
:100770003801C4F202010A20086045F2F001C4F217
:1007800000012820086048F20801C4F2020108684C
:1007900040F002000860086820F0010008604BE0AB
:1007A0009DF90B00522819D1FFE745F23801C4F238
:1007B00002010620086045F2F001C4F20001282081
:1007C000086048F20801C4F20201086820F0020043
:1007D0000860086840F0010008602CE09DF90B00FB
:1007E00053280FD1FFE745F23801C4F2020100207F
:1007F000086048F20801C4F20201086820F0030012
:10080000086017E09DF90B00552806D1FFE74FF46B
:1008100061510846FFF756FE0BE09DF90B00442896
:1008200006D1FFE74FF4FA510846FFF74BFEFFE70A
:10083000FFE7FFE7FFE7FFE7FFE7FFE75AE7000013
:10084000500800000000002060040000C00200000A
:040000050000026D88
:00000001FF
